{
  "contractName": "Store",
  "abi": [
    {
      "anonymous": false,
      "inputs": [
        {
          "indexed": false,
          "internalType": "uint256",
          "name": "id",
          "type": "uint256"
        }
      ],
      "name": "itemSaved",
      "type": "event"
    },
    {
      "inputs": [
        {
          "internalType": "uint256",
          "name": "",
          "type": "uint256"
        }
      ],
      "name": "Items",
      "outputs": [
        {
          "internalType": "uint256",
          "name": "id",
          "type": "uint256"
        },
        {
          "internalType": "string",
          "name": "cid",
          "type": "string"
        }
      ],
      "stateMutability": "view",
      "type": "function",
      "constant": true
    },
    {
      "inputs": [],
      "name": "newItemId",
      "outputs": [
        {
          "internalType": "uint256",
          "name": "",
          "type": "uint256"
        }
      ],
      "stateMutability": "view",
      "type": "function",
      "constant": true
    },
    {
      "inputs": [
        {
          "internalType": "string",
          "name": "cid",
          "type": "string"
        }
      ],
      "name": "storeCID",
      "outputs": [],
      "stateMutability": "nonpayable",
      "type": "function"
    }
  ],
  "bytecode": "0x60806040526000805534801561001457600080fd5b50610656806100246000396000f3fe608060405234801561001057600080fd5b50600436106100405760003560e01c80620ed58f1461004557806317b47cc414610063578063ccfdd32b14610094575b600080fd5b61004d6100b0565b60405161005a91906103dc565b60405180910390f35b61007d6004803603810190610078919061036b565b6100b6565b60405161008b9291906103f7565b60405180910390f35b6100ae60048036038101906100a9919061032a565b610162565b005b60005481565b60016020528060005260406000206000915090508060000154908060010180546100df906104f0565b80601f016020809104026020016040519081016040528092919081815260200182805461010b906104f0565b80156101585780601f1061012d57610100808354040283529160200191610158565b820191906000526020600020905b81548152906001019060200180831161013b57829003601f168201915b5050505050905082565b60008081548092919061017490610522565b9190505550604051806040016040528060005481526020018281525060016000805481526020019081526020016000206000820151816000015560208201518160010190805190602001906101ca92919061020a565b509050507fa95827a8430537995740650eaa25263064de1c37bf2afe2f48f49734d05255406000546040516101ff91906103dc565b60405180910390a150565b828054610216906104f0565b90600052602060002090601f016020900481019282610238576000855561027f565b82601f1061025157805160ff191683800117855561027f565b8280016001018555821561027f579182015b8281111561027e578251825591602001919060010190610263565b5b50905061028c9190610290565b5090565b5b808211156102a9576000816000905550600101610291565b5090565b60006102c06102bb84610458565b610427565b9050828152602081018484840111156102d857600080fd5b6102e38482856104ae565b509392505050565b600082601f8301126102fc57600080fd5b813561030c8482602086016102ad565b91505092915050565b60008135905061032481610609565b92915050565b60006020828403121561033c57600080fd5b600082013567ffffffffffffffff81111561035657600080fd5b610362848285016102eb565b91505092915050565b60006020828403121561037d57600080fd5b600061038b84828501610315565b91505092915050565b600061039f82610488565b6103a98185610493565b93506103b98185602086016104bd565b6103c2816105f8565b840191505092915050565b6103d6816104a4565b82525050565b60006020820190506103f160008301846103cd565b92915050565b600060408201905061040c60008301856103cd565b818103602083015261041e8184610394565b90509392505050565b6000604051905081810181811067ffffffffffffffff8211171561044e5761044d6105c9565b5b8060405250919050565b600067ffffffffffffffff821115610473576104726105c9565b5b601f19601f8301169050602081019050919050565b600081519050919050565b600082825260208201905092915050565b6000819050919050565b82818337600083830152505050565b60005b838110156104db5780820151818401526020810190506104c0565b838111156104ea576000848401525b50505050565b6000600282049050600182168061050857607f821691505b6020821081141561051c5761051b61059a565b5b50919050565b600061052d826104a4565b91507fffffffffffffffffffffffffffffffffffffffffffffffffffffffffffffffff8214156105605761055f61056b565b5b600182019050919050565b7f4e487b7100000000000000000000000000000000000000000000000000000000600052601160045260246000fd5b7f4e487b7100000000000000000000000000000000000000000000000000000000600052602260045260246000fd5b7f4e487b7100000000000000000000000000000000000000000000000000000000600052604160045260246000fd5b6000601f19601f8301169050919050565b610612816104a4565b811461061d57600080fd5b5056fea26469706673582212202c6915b5143aa8fad07eb0f25492914d70981734d6554a5c8d4c3b96e89972b964736f6c63430008000033",
  "immutableReferences": {},
  "source": "//SPDX-License-Identifier: UNLICENSED\r\npragma solidity ^0.8.0;\r\n\r\ncontract Store {\r\n    //counter to keep track of number of files saved\r\n    uint256 public newItemId = 0;\r\n\r\n    struct Item {\r\n        uint256 id;\r\n        string cid;\r\n    }\r\n    mapping(uint256 => Item) public Items;\r\n    event itemSaved(uint256 id);\r\n\r\n    function storeCID(string memory cid) public {\r\n        //Increment Counter\r\n        newItemId++;\r\n        //Save cid and its relevant id\r\n        Items[newItemId] = Item(newItemId, cid);\r\n        //emit event\r\n        emit itemSaved(newItemId);\r\n    }\r\n}\r\n",
  "sourcePath": "D:\\ChainSafe\\IPFS-Uload-cmd-line-Tool\\contracts\\contracts\\Store.sol",
  "compiler": {
    "name": "solc",
    "version": "0.8.0+commit.c7dfd78e.Emscripten.clang"
  },
  "schemaVersion": "3.4.3",
  "updatedAt": "2021-12-20T10:49:29.954Z",
  "networkType": "ethereum",
  "devdoc": {
    "kind": "dev",
    "methods": {},
    "version": 1
  },
  "userdoc": {
    "kind": "user",
    "methods": {},
    "version": 1
  }
}